:020000020000FC
:100000000C9406000C9478020C94780240E14EBFE8
:100010004FEF4DBFBB9ABC9ABD9ABE9ABF9A889AC1
:10002000899AB89AB99ABA9AD09AD19AD29AD39A06
:10003000D49AD59AD79A5FEF54BB4FEF42B9909AB2
:10004000919A40E049BF789403E30E9436020E94EF
:100050006D0202E30E9436020E946D0208E20E94D5
:1000600036020E946D020EE00E9436020E946D026E
:1000700001E00E9436020E946D0206E00E943602F4
:100080000E946D0207E50E944C0205E40E944C02AA
:1000900003E50E944C0204E50E944C020FE20E941C
:1000A0004C0205E40E944C0201E40E944C0203E56C
:1000B0000E944C0204E50E944C0200E20E944C02A5
:1000C00007E40E944C020FE40E944C0200EC0E94E4
:1000D00036020EE40E944C020FE40E944C0202E53C
:1000E0000E944C0204E50E944C0208E40E944C026B
:1000F00001E30E944C020FE20E944C0202E30E94C4
:100100004C0200E20E944C0203E50E944C0204E50E
:100110000E944C020FE40E944C0200E50E944C0237
:10012000C29AC59ADA9ADD9A0E941502C298C598B9
:10013000DA98DD9803E30E9436020E946D0202E322
:100140000E9436020E946D0208E20E9436020E945E
:100150006D020EE00E9436020E946D0201E00E94D4
:1001600036020E946D0206E00E9436020E946D0275
:1001700007E50E944C0205E40E944C0203E50E9440
:100180004C0204E50E944C020FE20E944C0205E47E
:100190000E944C0201E40E944C0203E50E944C02C2
:1001A00004E50E944C0200E20E944C0203E50E941A
:1001B0004C020CE40E944C020FE40E944C0207E542
:1001C0000E944C0200EC0E9436020EE40E944C0297
:1001D0000FE40E944C0202E50E944C0204E50E94DA
:1001E0004C0208E40E944C0201E30E944C020FE220
:1001F0000E944C0202E30E944C0200E20E944C0268
:1002000002E50E944C0205E40E944C0201E40E94B7
:100210004C0204E40E944C0209E50E944C02C19A7F
:10022000C49AD99ADC9A0E941B02C198C498D998A2
:10023000DC9803E30E9436020E946D0202E30E94F2
:1002400036020E946D0208E20E9436020E946D0290
:100250000EE00E9436020E946D0201E00E9436020A
:100260000E946D0206E00E9436020E946D0207E5C0
:100270000E944C0205E40E944C0203E50E944C02DD
:1002800004E50E944C020FE20E944C0205E40E9429
:100290004C0201E40E944C0203E50E944C0204E57A
:1002A0000E944C0200E20E944C0203E50E944C02B4
:1002B00004E50E944C020FE40E944C0200E50E94FB
:1002C0004C0200EC0E9436020EE40E944C020FE445
:1002D0000E944C0202E50E944C0204E50E944C027E
:1002E00008E40E944C0201E30E944C020FE20E94CB
:1002F0004C0202E30E944C0200E20E944C0207E41E
:100300000E944C020FE40E944C0243E049BFC09A95
:10031000C39AD89ADB9A0E941502C098C398D898BD
:10032000DB9840E049BF03E30E9436020E946D0261
:1003300002E30E9436020E946D0208E20E94360229
:100340000E946D020EE00E9436020E946D0201E0E2
:100350000E9436020E946D0206E00E9436020E9450
:100360006D0207E50E944C0205E40E944C0203E581
:100370000E944C0204E50E944C020FE20E944C02D3
:1003800005E40E944C0201E40E944C0203E50E9435
:100390004C0204E50E944C0200E200E20E944C0282
:1003A00002E50E944C0205E40E944C0201E40E9416
:1003B0004C0204E40E944C0209E50E944C0200EC4D
:1003C0000E9436020EE40E944C020FE40E944C028E
:1003D00002E50E944C0204E50E944C0208E40E94DF
:1003E0004C0201E30E944C020FE20E944C0202E325
:1003F0000E944C0200E20E944C0203E50E944C0263
:100400000CE40E944C020FE40E944C0207E50E949B
:100410004C02C19AC49AD99ADC9A0E941B02C198D4
:10042000C498D998DC980C941F002CE30E942102F8
:100430002A95E1F708952CE00E9421022A95E1F720
:10044000089540E04BBD44EF4ABD40E04DBD4CBD7A
:1004500040E04FBD4DE04EBD46B744FF0C942C022A
:1004600040E146BF40E04EBD4FBD0895B02FB07F84
:10047000B5BBDF98C798C69A0E947502C6980E94BD
:100480006D02B02FB295B07FB5BBC69A0E947502BF
:10049000C6980E946D020895B02FB07FB5BBDF9A59
:1004A000C798C69A0E947502C6980E946D02B02F26
:1004B000B295B07FB5BBC69A0E94C5020E94750274
:1004C000C6980E946D02DF9808951F9314E10E9460
:1004D0006D021A95E1F71F9108951F931CE30E9486
:1004E00075021A95E1F71F91089500000000089524
:1004F00000E10EBF0FEF0DBFDB98D8980E94CD0230
:10050000DB9AD89A0E94CD02DB98D8980E94CD023F
:10051000DB9AD89A0E94CD02DB98D898DB9AD89AB9
:10052000DB98D898DA9ADD9A4FEF42B947E643B99B
:100530000E94C5024FEF43B90E94C50247E043B98C
:100540000E94C5024CE743B90E94C5024DE643B97B
:100550000E94C50246E643B90E94C5024FE443B972
:100560000E94C5024BE543B90E94C50246E043B96B
:100570000E94C5024FE343B90E94C50240E043B95F
:10058000DA98DD98C098C59818950E94CD020E940F
:10059000CD020E94CD020E94CD020CE002BF07E016
:1005A00003BF66B760FFFDCF04E003BF01E006BFF5
:0205B0000895AC
:00000001FF
