:020000020000FC
:040000000C94080054
:10000C000C94200040E14EBF4FEF4DBFA49AA29A32
:10001C00A39A889A909A48E049BF40EC4ABF7894DA
:10002C00AC9A1CD0AC98AA9A14D0AA98AB9A16D0B9
:10003C00AB98F0CFAA98AC98AB9A06D0AB9804D0FA
:10004C00AB9A02D0AB98189524E00DD02A95E9F71D
:10005C0008952CE008D02A95E9F708952CE303D0F5
:10006C002A95E9F7089540E04BBD43EF4ABD40E0C7
:10007C004DBD4CBD40E04FBD4DE04EBD46B744FFBD
:0E008C00FDCF40E146BF40E04EBD4FBD0895A0
:00000001FF
